:020000040800F2
:100000000000022079180008F5060008F70600082D
:10001000F9060008FB060008FD06000800000000C5
:10002000000000000000000000000000FF060008C3
:10003000010700080000000003070008050700088A
:10004000C9180008C9180008C9180008C91800080C
:10005000C9180008C9180008C9180008C9180008FC
:10006000C9180008C9180008C9180008C9180008EC
:10007000C9180008C9180008C9180008C9180008DC
:10008000C9180008C9180008C9180008C9180008CC
:10009000C9180008C9180008C9180008C9180008BC
:1000A000C91800080D070008C9180008C918000879
:1000B000C9180008C9180008C9180008C91800089C
:1000C000C9180008C9180008C9180008C91800088C
:1000D000C9180008C9180008C9180008C91800087C
:1000E000C9180008C9180008C9180008C91800086C
:1000F000C9180008C9180008C9180008C91800085C
:10010000C9180008C9180008C9180008C91800084B
:10011000C9180008C9180008C9180008C91800083B
:10012000C9180008C9180008C9180008C91800082B
:10013000C9180008C9180008C9180008C91800081B
:10014000C9180008C9180008C9180008C91800080B
:10015000C9180008C9180008C9180008C9180008FB
:10016000C9180008C9180008C9180008C9180008EB
:10017000C9180008C9180008C918000800000000C4
:08018000C9180008C9180008A5
:1001880010B5054C237833B9044B13B10448AFF3C9
:1001980000800123237010BD0C0000200000000027
:1001A8002419000808B5034B1BB103490348AFF3F2
:1001B800008008BD0000000010000020241900087D
:1001C80053B94AB9002908BF00281CBF4FF0FF31B6
:1001D8004FF0FF3000F074B9ADF1080C6DE904CEB2
:1001E80000F006F8DDF804E0DDE9022304B070470A
:1001F8002DE9F047089D04468E46002B4DD18A42D2
:10020800944669D9B2FA82F252B101FA02F3C2F104
:10021800200120FA01F10CFA02FC41EA030E944095
:100228004FEA1C48210CBEFBF8F61FFA8CF708FBB6
:1002380016E341EA034306FB07F199420AD91CEB8E
:10024800030306F1FF3080F01F81994240F21C81C0
:10025800023E63445B1AA4B2B3FBF8F008FB103308
:1002680044EA034400FB07F7A7420AD91CEB04043D
:1002780000F1FF3380F00A81A74240F2078164440D
:10028800023840EA0640E41B00261DB1D440002392
:10029800C5E900433146BDE8F0878B4209D9002DF6
:1002A80000F0EF800026C5E9000130463146BDE880
:1002B800F087B3FA83F6002E4AD18B4202D38242EA
:1002C80000F2F980841A61EB030301209E46002D99
:1002D800E0D0C5E9004EDDE702B9FFDEB2FA82F2EE
:1002E800002A40F09280A1EB0C014FEA1C471FFA4C
:1002F8008CFE0126200CB1FBF7F307FB131140EA33
:1003080001410EFB03F0884208D91CEB010103F1FF
:10031800FF3802D2884200F2CB804346091AA4B2C1
:10032800B1FBF7F007FB101144EA01440EFB00FE95
:10033800A64508D91CEB040400F1FF3102D2A645FA
:1003480000F2BB800846A4EB0E0440EA03409CE799
:10035800C6F12007B34022FA07FC4CEA030C20FA46
:1003680007F401FA06F31C43F9404FEA1C4900FA66
:1003780006F3B1FBF9F8200C1FFA8CFE09FB1811E3
:1003880040EA014108FB0EF0884202FA06F20BD956
:100398001CEB010108F1FF3A80F08880884240F2A6
:1003A8008580A8F102086144091AA4B2B1FBF9F0EA
:1003B80009FB101144EA014100FB0EFE8E4508D9E5
:1003C8001CEB010100F1FF346CD28E456AD902386A
:1003D800614440EA0840A0FB0294A1EB0E01A1424F
:1003E800C846A64656D353D05DB1B3EB080261EBBD
:1003F8000E0101FA07F722FA06F3F1401F43C5E997
:10040800007100263146BDE8F087C2F12003D840CC
:100418000CFA02FC21FA03F3914001434FEA1C470E
:100428001FFA8CFEB3FBF7F007FB10360B0C43EA00
:10043800064300FB0EF69E4204FA02F408D91CEBB0
:10044800030300F1FF382FD29E422DD902386344AE
:100458009B1B89B2B3FBF7F607FB163341EA03414E
:1004680006FB0EF38B4208D91CEB010106F1FF389D
:1004780016D28B4214D9023E6144C91A46EA004694
:1004880038E72E46284605E70646E3E61846F8E626
:100498004B45A9D2B9EB020864EB0C0E0138A3E76F
:1004A8004646EAE7204694E74046D1E7D0467BE750
:1004B800023B614432E7304609E76444023842E7C8
:1004C800704700BF70B588B0002403940494059465
:1004D800069407940194184B1A6B42F001021A63B0
:1004E8001A6B02F001020192019A02941A6B42F00F
:1004F80008021A631B6B03F008030293029B0F4D5B
:1005080022464FF4F041284601F00EF801260396E2
:100518004FF488130493059403A9094800F012FFC7
:100528004FF4F043039304960594069403A92846D0
:1005380000F008FF08B070BD00380240000C02400F
:100548000000024072B6FEE700B587B000230293B0
:10055800039304930593009301931448144A02608B
:1005680044F62062426083604FF47A72C26003618D
:100578004361836100F0C2FA90B94FF4805302934B
:1005880002A90A4800F0F3FA60B900230093019326
:100598006946064800F06AFB30B907B05DF804FB0D
:1005A800FFF7D0FFFFF7CEFFFFF7CCFF28000020B2
:1005B8000000014008B50A480A4B03604FF4E133D4
:1005C800436000238360C36003610C22426183613E
:1005D800C36101F01DF900B908BDFFF7B3FF00BF03
:1005E800700000200010014008B50A480A4B03605B
:1005F8004FF4E133436000238360C36003610C223E
:1006080042618361C36101F003F900B908BDFFF7D6
:1006180099FF00BFB40000200044004000B595B029
:100628003022002108A801F071F9002303930493F4
:1006380005930693079301931D4A116C41F080516D
:100648001164126C02F080520192019A0293194AC5
:10065800116841F480411160126802F480420292EC
:10066800029A0222089201210B9110210C910E92FC
:100678000F9308231093502311931292042313937A
:1006880008A800F03BFB78B90F23039302230493D7
:100698009023059300210691079103A800F07CFDA3
:1006A80020B915B05DF804FBFFF74CFFFFF74AFFD0
:1006B800003802400070004008B500F0D7FFFFF78F
:1006C800ADFFFFF7FFFEFFF73FFFFFF773FFFFF7F1
:1006D8008BFF4FF47A7000F0F5FF4FF48041024829
:1006E80000F028FFF5E700BF000C0240FEE7FEE738
:1006F800FEE7FEE7FEE770477047704708B500F071
:10070800CFFF08BD08B5024800F0D6F808BD00BF05
:100718002800002082B0002100910B4B5A6C42F453
:1007280080425A645A6C02F480420092009A019105
:100738001A6C42F080521A641B6C03F080530193C8
:10074800019B02B0704700BF0038024002680E4BA0
:100758009A4200D0704700B583B00021019103F59B
:100768009C335A6C42F001025A645B6C03F001033B
:100778000193019B0A46192000F0F8FE192000F0A9
:100788002DFF03B05DF804FB0000014000B58BB0FD
:100798000023059306930793089309930368284A4F
:1007A800934205D0274A934226D00BB05DF804FB4C
:1007B80000210191244B5A6C42F010025A645A6C81
:1007C80002F010020192019A02911A6B42F00102A2
:1007D8001A631B6B03F001030293029B4FF4C0637F
:1007E800059302230693032308930723099305A976
:1007F800164800F0A7FDD8E700210391124B1A6CA8
:1008080042F400321A641A6C02F400320392039A1A
:1008180004911A6B42F001021A631B6B03F0010387
:100828000493049B0C230593022306930323089344
:100838000723099305A9054800F084FDB5E700BF23
:10084800001001400044004000380240000002400F
:1008580010B4036A046A24F001040462846924F071
:10086800F00C4CEA021223F00A030B438261036284
:100878005DF8044B704710B4046A24F01004046255
:100888008469036A24F4704C4CEA023223F0A00312
:1008980043EA0113826103625DF8044B7047836881
:1008A80023F070030B4343F00703836070477047DE
:1008B800704770477047704710B5044603681A6957
:1008C80012F0020F11D0DA6812F0020F0DD06FF09B
:1008D80002021A610123037703689B6913F0030F6F
:1008E80070D0FFF7E6FF0023237723681A6912F018
:1008F800040F12D0DA6812F0040F0ED06FF0040261
:100908001A610223237723689B6913F4407F5FD021
:100918002046FFF7CEFF0023237723681A6912F0D9
:10092800080F12D0DA6812F0080F0ED06FF0080224
:100938001A61042323772368DB6913F0030F4ED071
:100948002046FFF7B6FF0023237723681A6912F0C1
:10095800100F12D0DA6812F0100F0ED06FF01002DC
:100968001A61082323772368DB6913F4407F3DD09D
:100978002046FFF79EFF0023237723681A6912F0A9
:10098800010F03D0DA6812F0010F36D123681A6913
:1009980012F0800F03D0DA6812F0800F34D1236888
:1009A8001A6912F0400F03D0DA6812F0400F32D102
:1009B80023681A6912F0200F03D0DA6812F0200FAA
:1009C80030D110BDFFF774FF2046FFF773FF8AE7A9
:1009D8002046FFF76DFF2046FFF76CFF9BE7204698
:1009E800FFF766FF2046FFF765FFACE72046FFF7F5
:1009F8005FFF2046FFF75EFFBDE76FF001021A6157
:100A08002046FFF754FFC1E76FF080021A612046C5
:100A180000F073F9C3E76FF040021A612046FFF750
:100A28004AFFC5E76FF020021A61204600F064F91A
:100A3800C7E700000368304A904212D0B0F1804FF7
:100A48000FD0A2F57C4290420BD002F58062904212
:100A580007D002F58062904203D002F578429042B6
:100A680003D123F070034A681343234A90422AD0E3
:100A7800B0F1804F27D0A2F57C42904223D002F5F6
:100A8800806290421FD002F5806290421BD002F52E
:100A98007842904217D002F57052904213D002F576
:100AA800806290420FD002F5806290420BD0A2F58E
:100AB8009832904207D002F58062904203D002F546
:100AC8008062904203D123F44073CA68134323F031
:100AD80080034A69134303608B68C3620B688362AF
:100AE800054B984203D003F58063984201D10B6906
:100AF80003630123436170470000014040B310B510
:100B0800044690F83D30F3B1022384F83D30214685
:100B180051F8040BFFF78EFF012384F8463084F860
:100B28003E3084F83F3084F8403084F8413084F80F
:100B3800423084F8433084F8443084F8453084F8EF
:100B48003D30002010BD80F83C30FFF7FFFDDBE7AB
:100B58000120704710B4846824F47F4C42EA0322D1
:100B68000A4342EA0C0282605DF8044B704790F831
:100B78003C30012B78D010B50446012380F83C3076
:100B8800022380F83D300268936823F47F4323F002
:100B9800770393600B68602B4CD029D8402B54D036
:100BA8000CD9502B22D1CA6849680068FFF750FE5B
:100BB80050212068FFF773FE002005E0202B0DD0A0
:100BC80009D9302B0AD00120012384F83D300023B5
:100BD80084F83C3010BD0BB1102B05D119462068A4
:100BE800FFF75DFE0020EFE70120EDE70120EBE7CE
:100BF800B3F5805F34D0B3F5005F0CD1CB684A6899
:100C080089680068FFF7A6FF2268936843F4804369
:100C180093600020D8E7702B24D1CB684A68896894
:100C28000068FFF797FF2268936843F077039360A3
:100C38000020C9E7CA6849680068FFF71CFE602100
:100C48002068FFF72CFE0020BEE7CA6849680068E4
:100C5800FFF7FEFD40212068FFF721FE0020B3E7E3
:100C68000020B1E70120AFE70220704790F83C3040
:100C7800012B3DD010B4012380F83C30022380F8CA
:100C88003D3003685A689C6822F0700C0A6842EA92
:100C98000C025A600368174A93421AD0B3F1804F86
:100CA80017D0A2F57C42934213D002F5806293429A
:100CB8000FD002F5806293420BD002F5784293423E
:100CC80007D002F57052934203D0A2F594329342B2
:100CD80004D124F080044A6814439C60012380F8FE
:100CE8003D30002380F83C3018465DF8044B7047CF
:100CF800022070470000014070477047002800F04C
:100D0800E08170B582B00446036813F0010F3BD050
:100D18009F4B9B6803F00C03042B2CD09C4B9B68C7
:100D280003F00C03082B21D06368B3F5803F4FD044
:100D3800B3F5A02F52D0964B1A6822F480321A606D
:100D48001A6822F480221A606368002B50D000F0E1
:100D5800B3FC05468E4B1B6813F4003F14D100F01A
:100D6800ABFC401B6428F5D90320B1E1884B5B68D4
:100D780013F4800FD8D0864B1B6813F4003F03D0C0
:100D88006368002B00F09F81236813F0020F54D092
:100D98007F4B9B6813F00C0F3ED07D4B9B6803F094
:100DA8000C03082B33D0E368002B68D0794B012261
:100DB8001A6000F081FC0546754B1B6813F0020FA2
:100DC80054D100F079FC401B0228F5D903207FE1BB
:100DD8006F4A136843F480331360B5E76C4B1A68A5
:100DE80042F480221A601A6842F480321A60ABE733
:100DF80000F062FC0546664B1B6813F4003FC3D045
:100E080000F05AFC401B6428F5D9032060E1604BD0
:100E18005B6813F4800FC6D15D4B1B6813F0020F9B
:100E280003D0E368012B40F05081594A136823F03E
:100E3800F803216943EAC1031360236813F0080F1C
:100E480042D063696BB3534B0122C3F8802E00F084
:100E580033FC05464E4B5B6F13F0020F34D100F0A4
:100E68002BFC401B0228F5D9032031E1484A1368BE
:100E780023F0F803216943EAC1031360DDE7454B1A
:100E880000221A6000F018FC0546414B1B6813F05D
:100E9800020FD2D000F010FC401B0228F5D9032025
:100EA80016E13C4B0022C3F8802E00F005FC0546F5
:100EB800374B5B6F13F0020F06D000F0FDFB401BB1
:100EC8000228F5D9032003E1236813F0040F77D033
:100ED8002F4B1B6C13F0805F33D1002301932C4BF5
:100EE8001A6C42F080521A641B6C03F08053019311
:100EF800019B0125284B1B6813F4807F23D0A3682E
:100F0800012B34D0052B38D0214B1A6F22F0010267
:100F18001A671A6F22F004021A67A368002B3DD0E3
:100F280000F0CAFB06461A4B1B6F13F0020F46D19E
:100F380000F0C2FB801B41F288339842F3D90320AA
:100F4800C6E00025D6E7144A136843F4807313609B
:100F580000F0B2FB0646104B1B6813F4807FCED11D
:100F680000F0AAFB801B0228F5D90320B0E0084A4C
:100F7800136F43F001031367CFE7054B1A6F42F075
:100F880004021A671A6F42F001021A67C5E700BF28
:100F980000380240000047420070004000F08CFB1F
:100FA8000646524B1B6F13F0020F08D000F084FB6B
:100FB800801B41F288339842F3D9032088E0EDB9C9
:100FC800A369002B00F08380484A926802F00C0263
:100FD800082A51D0022B17D0454B00221A6600F080
:100FE8006BFB0446414B1B6813F0007F42D000F0B6
:100FF80063FB001B0228F5D9032069E03B4A136C08
:1010080023F080531364DBE7394B00221A6600F0A3
:1010180053FB0546354B1B6813F0007F06D000F0E4
:101028004BFB401B0228F5D9032051E0E369226AF3
:101038001343626A43EA8213A26A5208013A43EAF6
:101048000243E26A43EA0263284A5360284B0122BA
:101058001A6600F031FB0446244B1B6813F0007F2E
:1010680006D100F029FB001B0228F5D903202FE048
:1010780000202DE000202BE0012B2BD01B4B5B68C0
:1010880003F48001E269914226D103F03F02216A0C
:101098008A4223D1616A47F6C0721A40B2EB811FB7
:1010A8001ED103F44031A26A5208013AB1EB024F53
:1010B80018D103F07063E26AB3EB026F14D1002019
:1010C80006E001207047012002E0012000E0002036
:1010D80002B070BD0120FBE70120F9E70120F7E726
:1010E8000120F5E70120F3E70120F1E7003802408D
:1010F8000000474208B5254B9B6803F00C03042BFE
:101108003FD0082B3FD1214B5A6802F03F025B6861
:1011180013F4800F12D01D4B5968C1F388111C4875
:101128000023A1FB0001FFF74BF8184B5B68C3F3E2
:10113800014301335B00B0FBF3F025E0134B596822
:10114800C1F3881C4FEA4C11B1EB0C006EEB0E0E8C
:101158004FEA8E1343EA90638101091A63EB0E0389
:10116800DB0043EA5173C90011EB0C0C43F1000397
:10117800990200234FEA8C2041EA9C51FFF720F89E
:10118800D3E7034800E0034808BD00BF0038024029
:1011980040787D010024F400002800F09B8070B5A1
:1011A8000D4604464F4B1B6803F007038B4208D2D9
:1011B800CBB24C4A1370136803F007038B4240F01C
:1011C8008B80236813F0020F17D013F0040F04D09C
:1011D800454A936843F4E0539360236813F0080F7B
:1011E80004D0414A936843F4604393603E4A93684D
:1011F80023F0F003A1680B439360236813F0010FF9
:1012080032D06368012B21D09A1E012A25D9364A8B
:10121800126812F0020F61D033498A6822F0030283
:1012280013438B6000F048FA06462F4B9B6803F087
:101238000C036268B3EB820F16D000F03DFA801BF6
:1012480041F288339842F0D9032042E0264A1268D6
:1012580012F4003FE0D101203BE0234A126812F06B
:10126800007FD9D1012034E01E4B1B6803F007032F
:10127800AB4207D9EAB21B4B1A701B6803F007038D
:10128800AB422DD1236813F0040F06D0164A936899
:1012980023F4E053E1680B439360236813F0080FCD
:1012A80007D0114A936823F46043216943EAC103D4
:1012B8009360FFF71FFF0C4B9B68C3F303130B4AA4
:1012C800D35CD8400A4B18600A4B186800F0A8F99C
:1012D800002070BD012070470120FAE70120F8E7DF
:1012E8000120F6E7003C0240003802403C190008A3
:1012F8000800002004000020014B1868704700BF58
:101308000800002008B5FFF7F7FF044B9B68C3F3FC
:101318008223034AD35CD84008BD00BF003802408E
:101328004C19000808B5FFF7E7FF044B9B68C3F3A7
:101338004233034AD35CD84008BD00BF003802409E
:101348004C19000800230F2B00F2E48070B582B01E
:1013580060E085685E000324B44025EA0405CC6893
:10136800B4402C438460456825EA02054C68C4F300
:1013780000129A402A4342605AE0DC08083450F8C8
:10138800246003F0070295000F22AA4026EA020E05
:101398000A69AA4042EA0E0240F824205CE00722CB
:1013A80000E0002202FA0EF22A4302345A4D45F8B0
:1013B80024205A4A94686FEA0C0224EA0C054E6805
:1013C80016F4801F01D04CEA0405544CA560E4686B
:1013D80002EA04054E6816F4001F01D04CEA040521
:1013E8004E4CE560646802EA04054E6816F4003F56
:1013F80001D04CEA0405494C6560246822404D68D8
:1014080015F4803F01D04CEA0402444C22600133B9
:101418000F2B7DD801229A400C6804EA020C32EAAC
:101428000404F4D14C6804F00304013C012C90D965
:101438004A6802F00302032A09D0C4685D00032247
:10144800AA4024EA02048A68AA402243C2604A6881
:1014580002F00302022A90D004684FEA430E0322E6
:1014680002FA0EF224EA02044A6802F0030202FABF
:101478000EF2224302604A6812F4403FC7D00022AD
:101488000192274A546C44F480445464526C02F428
:1014980080420192019A9C08A51C1F4A52F82550C7
:1014A80003F003024FEA820E0F2202FA0EF225EA37
:1014B80002051C4A90423FF474AF02F580629042E4
:1014C8001AD002F58062904218D002F580629042EC
:1014D80016D002F58062904214D002F580629042E4
:1014E80012D002F58062904210D002F580629042DC
:1014F8003FF455AF082255E7012253E7022251E78E
:1015080003224FE704224DE705224BE7062249E76D
:1015180002B070BD704700BF00380140003C014078
:1015280000380240000002400AB181617047090496
:1015380081617047436901EA030221EA030141EA34
:101548000241816170470000074AD36823F4E063D1
:101558001B041B0C000200F4E060034343F0BF636C
:1015680043F40033D360704700ED00E000B5194B39
:10157800DB68C3F30223C3F1070CBCF1040F28BFD7
:101588004FF0040C03F1040EBEF1060F18D9033B0B
:101598004FF0FF3E0EFA0CFC21EA0C0199400EFABE
:1015A80003F322EA0303194300280BDB0901C9B23C
:1015B80000F1604000F5614080F800135DF804FB1D
:1015C8000023E5E700F00F000901C9B2024B1954E6
:1015D800F4E700BF00ED00E014ED00E0002807DBB1
:1015E80000F01F02400901239340024A42F82030CC
:1015F800704700BF00E100E00138B0F1807F0BD2F6
:101608004FF0E0235861054AF02182F823100020AA
:10161800986107221A6170470120704700ED00E0C9
:1016280010B504460E4B18784FF47A73B3FBF0F3F9
:101638000C4A1068B0FBF3F0FFF7DEFF68B90F2C17
:1016480001D901200AE0002221464FF0FF30FFF7C0
:101658008DFF054B1C60002000E0012010BD00BF7D
:1016680000000020080000200400002008B50B4BF3
:101678001A6842F400721A601A6842F480621A60AA
:101688001A6842F480721A600320FFF75DFF0F208A
:10169800FFF7C6FFFFF73EF8002008BD003C0240F8
:1016A800034A1168034B1B780B441360704700BF53
:1016B800F800002000000020014B1868704700BFA8
:1016C800F800002038B50446FFF7F6FF0546B4F1E8
:1016D800FF3F02D0044B1B781C44FFF7EDFF401B73
:1016E800A042FAD338BD00BF00000020034AD2F858
:1016F800883043F47003C2F88830704700ED00E08A
:1017080038B504460268136923F44053C1680B4393
:10171800136183680269134342691343C2691A4318
:101728000168CB6823F4164323F00C031343CB6002
:101738000268536923F4407381690B43536103685A
:10174800314A934206D002F58062934202D0FFF7F5
:10175800D9FD01E0FFF7E6FDE369B3F5004F29D0B5
:101768000021031849411B1841F10001C90041EA51
:101778005371DB00181863684FEA83024FEA9373CA
:1017880041F10001FEF71CFD204DA5FB0032510977
:10179800642303FB11031B013233A5FB03235B09FD
:1017A80003F0F00202EB011203F00F032168134467
:1017B8008B6038BD0023021843EB0301121841F176
:1017C8000001C90041EA5271D200101841F100012C
:1017D800626892185B41FEF7F3FC0C4DA5FB0032E2
:1017E8005109642303FB1103DB003233A5FB0323F8
:1017F8005B095A0002F4F87202EB011203F00703C6
:10180800216813448B60D4E7001001401F85EB5119
:1018180058B310B5044690F83D300BB3242384F830
:101828003D302268D36823F40053D3602046FFF785
:1018380067FF2268136923F4904313612268536990
:1018480023F02A0353612268D36843F40053D3601A
:1018580000202064202384F83D3084F83E3010BDF9
:1018680080F83C30FEF792FFD8E70120704700006F
:10187800DFF834D00D480E490E4A002302E0D45850
:10188800C4500433C4188C42F9D30B4A0B4C0023C0
:1018980001E013600432A242FBD3FFF727FF00F0F8
:1018A80011F8FEF709FF7047000002200000002031
:1018B8000C000020641900080C000020FC00002027
:1018C800FEE7000070B50D4D0D4C641BA4100026FA
:1018D800A64209D10B4D0C4C00F020F8641BA41053
:1018E8000026A64205D170BD55F8043B984701363D
:1018F800EEE755F8043B98470136F2E75C19000813
:101908005C1900085C1900086019000802440346C5
:10191800934200D1704703F8011BF9E7F8B500BFFF
:10192800F8BC08BC9E467047F8B500BFF8BC08BCB8
:041938009E46704710
:10193C000000000000000000010203040607080973
:08194C00000000000102030489
:08195400A4E8FF7F0100000080
:04195C00AD010008D1
:0419600089010008F1
:0C19640001000000100000000024F4004E
:04000005080018795E
:00000001FF
